:020000040800F2
:10000000780A0024AD020008EB5100085F4E00089A
:10001000E9510008A90A0008D163000800000000A7
:100020000000000000000000000000007154000803
:10003000DD0C000800000000ED51000873540008BA
:10004000CB020008CB020008CB020008CB0200085C
:10005000CB020008CB020008CB020008CB0200084C
:10006000CB020008CB020008CB020008AD0A000852
:10007000B90A0008CB020008CB020008CB02000836
:10008000CB020008CB020008CB020008CB0200081C
:10009000CB020008CB020008CB020008CB0200080C
:1000A000CB020008CB020008CB020008CB020008FC
:1000B000CB020008CB020008CB020008CB020008EC
:1000C000CB020008CB020008CB020008CB020008DC
:1000D000CB020008CB020008CB02000895630008A1
:1000E000CB020008CB02000800000000CB02000891
:1000F000CB020008CB020008CB020008CB020008AC
:10010000CB020008CB020008CB020008CB0200089B
:10011000CB020008CB020008CB020008CB0200088B
:10012000CB020008CB020008CB020008CB0200087B
:10013000CB020008CB020008CB020008CB0200086B
:1001400000000000000000000000000000000000AF
:10015000CB020008CB020008CB020008CB0200084B
:10016000CB020008CB020008CB020008CB0200083B
:10017000CB020008CB020008CB020008CB0200082B
:10018000CB020008CB020008CB020008CB0200081B
:10019000CB020008CB020008CB020008CB0200080B
:1001A000CB020008CB020008CB020008CB020008FB
:1001B000CB020008CB020008CB020008CB020008EB
:1001C000CB020008CB020008CB020008CB020008DB
:1001D000CB020008CB020008CB020008CB020008CB
:1001E000CB020008CB020008CB020008CB020008BB
:1001F000CB020008CB020008CB020008CB020008AB
:10020000CB020008CB020008CB020008CB0200089A
:10021000CB020008CB020008CB020008CB0200088A
:10022000CB020008CB020008CB020008000000004F
:10023000CB020008CB02000800000000CB0200083F
:10024000CB020008CB020008CB020008CB0200085A
:10025000CB020008CB020008CB020008CB0200084A
:10026000CB020008CB020008CB020008CB0200083A
:10027000CB020008CB020008CB02000800000000FF
:10028000CB020008CB020008CB02000800000000EF
:1002900000000000CB020008DFF80CD000F04CFAA0
:1002A00000480047456E0008780A00240748804748
:1002B0000748804707480047FEE7FEE7FEE7FEE7FE
:1002C000FEE7FEE7FEE7FEE7FEE7FEE7E50C0008D7
:1002D00025550008990200082DE9F05F0546002029
:1002E00092469B4688460646814640241BE02846A7
:1002F00041464746224600F057F853465A46C01A30
:10030000914110D311461846224600F03EF82D1AAE
:1003100067EB01084F4622460120002100F035F826
:1003200017EB00094E41201EA4F10104DFDC484612
:1003300031462A464346BDE8F09FD2B201E000F8BC
:10034000012B491EFBD270470022F6E710B5134679
:100350000A4604461946FFF7F0FF204610BD30B5A7
:100360000B46014600202022012409E021FA02F573
:100370009D4205D303FA02F5491B04FA02F528440D
:10038000151EA2F10102F1DC30BD202A04DB203A67
:1003900000FA02F1002070479140C2F1200320FAD8
:1003A00003F3194390407047202A04DB203A21FAD6
:1003B00002F00021704721FA02F3D040C2F120027E
:1003C00091400843194670472DE9FE4F804681EA67
:1003D0000300C00F0C46009021F0004123F00045BF
:1003E000B8EB0200A94105D24046214690461C4682
:1003F0000B46024623F00040104347D0270DC7F3B9
:100400000A00C3F30A510290401A019040286BDAA7
:10041000C3F3130040F4801B0098924620B10023E0
:10042000D2EB030A63EB0B0B01985946C0F1400273
:100430005046FFF7AAFF06460D4650465946019A18
:1004400000F08CF910EB08006141002487EA11529A
:1004500084EAE7731A4340D0009A62B3019A012AF2
:100460004FEA075215DC001B61EB02014FF000421E
:1004700002EA0752CDE90042001C41F580113246E4
:100480002B4600F08CF903B0BDE8F08F40462146C2
:10049000F9E7001B61EB0201001C41F58013001815
:1004A0005B412018A2F5001747EB030140EAD57025
:1004B000B6196D4111E06D084FEA360645EAC07580
:1004C0004FEA0752001B61EB0201001C41F580114D
:1004D00049084FEA30000019514132462B4603B01B
:1004E000BDE8F04F00F04CB9009801224000002315
:1004F000D0EB020263EBE073009821464FEAE07410
:10050000B8EB000061EB0401E9E783F000435BE72F
:1005100081F0004158E72DE9FE4F81EA030404F021
:10052000004421F0004100944FF0000B23F0004301
:1005300050EA01045ED052EA03045BD0C3F30A54CC
:10054000C1F30A552C44A4F2F3340194A0FB0254E5
:10055000C1F3130141F48011C3F3130343F4801377
:1005600001FB024400FB034E840A970A44EA8154CB
:1005700047EA8357A4FB076802958D0A05FB0785A8
:100580004FEA932C04FB0C542705029D4FEA0658B2
:1005900047EA1637B5EB08056EEB070C870E920E8F
:1005A00047EA811742EA8312A7FB0201B6EB0B016F
:1005B00064EB00042B0D43EA0C335E1844EB1C5033
:1005C000DA465146E7FB0201C5F313044FEA0B3349
:1005D00043EA14534FEA0432019C43EA0603A4F1B0
:1005E0000C040294009CCDE900B400F0D8F803B0EC
:1005F000BDE8F08F00200146F9E72DE9F04D81EAD2
:10060000030404F0004B21F0004514464FF0000AAB
:1006100023F0004150EA050220D054EA01021DD027
:10062000C5F30A570246C5F31303C1F31300C1F320
:100630000A5640F4801543F48013A7EB0608101BFC
:10064000D64608F2FD3873EB050002D308F1010825
:1006500001E092185B41B8F1000F03DA0020014677
:10066000BDE8F08D00204FF48011064684460EE070
:10067000171B73EB050705D3121B63EB050306433A
:100680004CEA010C49084FEA300092185B4150EAED
:100690000107EDD152EA030012D082EA040083EA96
:1006A0000501084305D0101BAB4106D201220023EF
:1006B00006E000224FF0004302E06FF00102531009
:1006C0001AEB06004CEB085110EB0A0041EB0B0152
:1006D000BDE8F04D00F054B8C1F30A52C1F3130164
:1006E00040F2FF3341F480119A4202DA00200146C1
:1006F000704740F233439A42A2F2334202DC524244
:10070000FFF752BEFFF741BE30B5041E71F1000481
:1007100004DB4FF00044404264EB0101141E73F10E
:10072000000405DB1C464FF00043524263EB040318
:10073000994208BF904230BD064C074D06E0E06884
:1007400040F0010394E8070098471034AC42F6D318
:10075000FFF7A6FD1471000834710008202A06DB9B
:10076000CB17203A41FA02F043EAE07306E041FA7F
:1007700002F3D040C2F1200291400843194670476D
:1007800010B5141E73F1000408DA401C41F1000199
:1007900092185B411A4301D120F0010010BD2DE9F0
:1007A000F04D92469B4611B1B1FA81F202E0B0FAE7
:1007B00080F220329046FFF7E8FD04460F4640EAFB
:1007C0000A0041EA0B0153465A46084313D011462A
:1007D00053EA010019D0C8F140025046FFF7E4FD8A
:1007E00005460E46504659464246FFF7CEFD0843A1
:1007F00005D0012004E020463946BDE8F08D0020F8
:10080000054346EAE0762C4337430A986305E40A39
:10081000A0EB08000022FD0A44EA47540A3002D542
:1008200000200146E9E7010510196941DDE90845A5
:1008300000196941BDE8F04DA2E7000070B50D4D0B
:100840004FF4807400222146284602F001F802206D
:1008500005F0BFFD01222146284601F0F9FF0420E2
:1008600005F0B7FD21462846BDE87040002201F0A2
:10087000EFBF00000010025810B500F011F801237E
:10088000064A0321184600F027F8044A0123BDE870
:100890001040121F0221084600F01EB8200000245C
:1008A00010B50C4C00228021204601F0D1FF012020
:1008B00005F08FFD01222046802101F0C9FF1E2096
:1008C00005F087FD00222046BDE81040802101F0A0
:1008D000BFBF0000001002582DE9FF5F2F4C4FF4FE
:1008E00080660022894607463146204601F0B0FF67
:1008F00000222046710001F0ABFF00254FF4007884
:1009000031460022204601F0A3FFFA094146204665
:1009100001F09EFF01223146204601F099FF780642
:100920006D1C070EEDB2082DEAD300223146204699
:1009300001F08EFFB34627460024C2461FE002980E
:100940000025D846065D00224146384601F080FF6A
:10095000F2095146384601F07BFF012241463846F4
:1009600001F076FF70066D1C060EEDB2082DEAD37D
:1009700000224146384601F06BFF641CE4B24C454E
:10098000DDD3039808B1FFF759FF04B038460122C0
:10099000BDE8F05FD10201F05BBF0000001002581B
:1009A00070B53A4905460068884202D0384A9042FC
:1009B00002D1D1F8080302E03648D0F8080310F459
:1009C000403F11D003F0D4F904466868B0F5803F89
:1009D00006D0B0F5003F03D0B0F5403F27D101E08D
:1009E000000C18E0A40822E000214FF4002002F0DF
:1009F00057FA044668688103890B18D181140C29C1
:100A000015D2DFE801F0140606060606060B0D0FE8
:100A10001113800C4000B4FBF0F408E0240906E058
:100A2000640904E0A40902E0E40900E0240A01F0FA
:100A300015FF41F20301884208D81748844228680C
:100A4000816813D821F48071816070BD13496008FA
:100A5000884204D82868816821F44071F4E710497D
:100A6000884206D82868816821F4407141F4807179
:100A7000EAE70C4988422868816804D821F440716B
:100A800041F40071E0E741F44071DDE700200240ED
:100A90000021024000600258002D3101105E5F000D
:100AA00020BCBE0040787D01FEE70000014801F057
:100AB00063B8000080010024014801F05DB8000027
:100AC000F8010024294A016891423AD0274A183295
:100AD000914236D0254A3032914232D0234A4832B0
:100AE00091422ED0214A603291422AD01F4A783258
:100AF000914226D01D4A9032914222D01B4AA83200
:100B000091421ED01A4A91421BD0194A1832914282
:100B100017D0174A3032914213D0154A48329142C9
:100B20000FD0134A603291420BD0114A7832914271
:100B300007D00F4A9032914203D00D4AA832914219
:100B400011D1CAB21823103AB2FBF3F26FF30901C4
:100B5000032A02F00703074AD25CC26500D9091DC7
:100B600081650846704721F0FF01F9E71000024057
:100B700010040240D470000830B5224A01230168F5
:100B80009142CAB21BD01F4C1434A14217D01D4C45
:100B90002834A14213D01B4C3C34A1420FD0194C35
:100BA0005034A1420BD0174C6434A14207D0154CED
:100BB0007834A14203D0134C8C34A1420CD11421BF
:100BC000114C083AB2FBF1F10F4A803201F01F05D7
:100BD00004EB8101AB4010E00C4D1824103A0D4499
:100BE000B2FBF4F1A82D00D80831094A01F01F0426
:100BF00002EB8101064AA3408032603080E80E009B
:100C000030BD00000854025800580258F0FBFDBFE8
:100C10000008024010B50279531E072B2DD8174C3F
:100C20000168A1421BD0154C1434A14217D0134CBB
:100C30002834A14213D0114C3C34A1420FD00F4CA8
:100C40005034A1420BD00D4C6434A14207D00B4C60
:100C50007834A14203D0094C8C34A14203D1084915
:100C6000074C443102E00749064C443104EB820250
:100C7000C0E91B2101219940416710BD0854025869
:100C8000FC580258FC08024010B583694FF0C0744C
:100C9000826A0146002053B1B3F5005F15D072B1EE
:100CA000012A0CD0022A0AD0032A09D104E01AB181
:100CB000012A06D0022A03D1C96AC90100D5012040
:100CC00010BDC96AA142FAD010BD002AF7D0012A8E
:100CD000F2D0022AF3D0032AF3D010BD704772B6C7
:100CE000FEE70000054805490839026842F00202A3
:100CF000026008688004FCD5704700000C48025868
:100D00002DE9F0470F4690F850109AB0044601299B
:100D10004FF0000915D00026DFF8F880012084F894
:100D2000500015961696216841450ED13A4D009512
:100D3000284604F09DF88246206804F099F860B1D6
:100D40000EE002201AB0BDE8F087606D84F85060B4
:100D500040F0200060650120F4E7BAF1000F09D0EF
:100D6000616D4FF0010941F020006065484684F84C
:100D70005060E7E720684146884201D0A84201D18F
:100D8000264800E0264840F61F72D7F800C0254BE1
:100D9000BCF1000F23D0D0F808C0D7F804802CF4A1
:100DA000404C4CEA080CC0F808C0D4F800C08C4590
:100DB00001D0AC4507D18968AB6801F0010103F0AF
:100DC0000103194302E0996801F001010029CDD126
:100DD000BD683968836829439343194317E08768DE
:100DE00027F44047876027688F4201D0AF4207D180
:100DF0008968AB6801F0010103F00103194302E0C7
:100E0000996801F001010029B0D1816891438160A6
:100E1000ACE7000000200240002102400023024015
:100E200000630258006002582DE9F84F0446EB4E6B
:100E30000020DFF8ACB30090002794F850000D4676
:100E4000DFF8A0A3012808D04FF0010984F85090E2
:100E5000206804F009F818B171E10220BDE8F88FAC
:100E6000286800280EDB21680303CA6928D090FA9D
:100E7000A0F0B0FA80F000BF00F01F0309FA03F001
:100E80000243CA61D5E900124FF00C0C20681F2301
:100E9000C1F384610CEA921C02F01F02604493408B
:100EA0009140026B9A430A430263206803F0DCFF1F
:100EB0008046206803F0D4FF58EA000003D08DE09C
:100EC000C0F38460D8E72A68042320684FF0070C39
:100ED000A96803EAD25318444369C2F304520CFAD6
:100EE00002FC914023EA0C030B434361BE490968AD
:100EF000B9EB117F06D121686869C968C1F3820125
:100F0000490008E02068C168C906C1686869F5D56C
:100F100001F0100149088840296904292ED023686E
:100F20002A6803EB810102F0F8420B6E024303F0E2
:100F3000004010430866697E22682869012917D09D
:100F40005FF0000102EB8000026E22F000420A43D3
:100F50000266297E20682A6901290CD000210369D4
:100F600002F01F02914023F4F0420A43026135E08F
:100F70004FF00041E6E74FF40061F0E72068297880
:100F8000026E02F0F842B2EB816F03D1016E21F0E4
:100F90000041016620682978426E02F0F842B2EB07
:100FA000816F03D1416E21F00041416620682978AC
:100FB000826E02F0F842B2EB816F03D1816E21F0B4
:100FC0000041816620682978C26E02F0F842B2EBD7
:100FD000816F03D1C16E21F00041C1662068816834
:100FE00011F0010F72D150F8C03F2A7BDFF8FCC12D
:100FF000296802F018022CFA02FCC1F3130823EA54
:1010000008030CEA010C43EA0C030360E968594544
:101010006CD177482268DFF8DCC1DFF8DCB18242AE
:10102000DFF8D8E17648774BDFF8DC8122D12968F8
:10103000614524D0B1EB4C0C38D0A1F1496CBCF126
:10104000080C35D0A1F1865CBCF1100C32D0DFF871
:10105000BCC1614528D071453AD0814230D0994217
:1010600032D06B48814201D16A4831E041452ED1EE
:1010700069482DE0B2422AD12968614501D1012099
:1010800026E0A1F1066CBCF1040C0FD0A1F1496C73
:10109000BCF1080C0CD0A1F1865CBCF1100C09D09D
:1010A000DFF868C1614507D15C4811E058460FE0A0
:1010B0005B480DE05B480BE0714509D0814201D1EE
:1010C000184605E09942D1D1574801E03CE00020A4
:1010D000D16903031AD090FAA0F0B0FA80F000BFF3
:1010E00000F01F0309FA03F00143D161D5F800C0F5
:1010F000BCF1000F28DA3E4B20684C49DFF83091F4
:10110000984201D0B04203D10A4602E0800EE7E7E0
:101110004A469268984202F0E07201D0B04209D18A
:101120009D68D6F8088005F0010508F0010845EA39
:10113000080503E0DAF8085005F001054DB1606DCF
:10114000012740F020006065002084F850003846F8
:1011500084E6384DAC451CD115021AD45045F3D164
:10116000984202D0B04200D049468B6842F4000059
:1011700023F0E07202438A6030492F480968B1FBCE
:10118000F0F04000801C00E0401E00900028FBD1E1
:10119000DAE72B4DAC450CD1D5010AD45045D3D15B
:1011A000984202D0B04200D049468B6842F080702D
:1011B0000EE0244DAC45C7D15502C5D45045C3D12E
:1011C000984202D0B04200D049468B6842F4800079
:1011D00023F0E07202438A60B6E70000002102407B
:1011E0000000FF47006002580010005CFFFF0F0086
:1011F0000020024002003004400020190004002AB0
:101200000008302E001060320000844B2000F014E3
:1012100000002143000052470000B84F0002B025F3
:101220008000501D000180210020903600230240E4
:1012300000630258000084CB400D0300100000241E
:10124000000052C70000B8CFF8B54FF00006040008
:101250003546009602D0606D10B107E00120F8BD60
:10126000204600F005F9A66584F850602068816882
:10127000C1F3407119B18168704A114081602068E2
:101280008168C1F3007181B981686D4A114041F0F4
:10129000805181606C496B480968B1FBF0F0401CDB
:1012A00000E0401E00900028FBD120688168C1F357
:1012B000007141B9616D012541F010016165A16DB9
:1012C00041F00101A16503F0CFFD616DC90600D4B5
:1012D00020B1606D012540F0100093E0606D20F4B6
:1012E000807040F0020060652068816811F0010F95
:1012F0001FD1564A564B904201D0984207D191686F
:101300009E6801F0010106F00106314303E05149F6
:10131000896801F0010161B9904201D0984201D180
:101320004D4800E04D488268616822F47C120A430F
:10133000826001F093FA41F20301884202D9A06869
:1013400010280CD0617D227FA368206B490341EAFD
:10135000024118430843217F01290CD010E0607D31
:10136000227F216B400340EA024241F0100010430B
:1013700040F00C00EFE7218C394A02EB4141084371
:10138000616A29B1A26A01F47871014342EA01005D
:101390002168344BCA681A400243CA60206803F0CF
:1013A00063FD0646206803F05BFD30431DD12168D4
:1013B00044F20303267DE26AC86842EA8632984313
:1013C0001043C86094F8380001281ED020680169D5
:1013D00021F0010101612068626B016921F0704117
:1013E000114301612046FFF7DBFAE068012820681D
:1013F0001CD0016B21F00F010163606D20F0020031
:1014000040F0010060652846F8BD2068A28F164FA5
:10141000D4E9101C154E07EB0247A36C026941EAA0
:101420000C013B43324019431143D3E7A269016BDE
:10143000521E21F00F011143DEE70000C0FFFF5FE5
:10144000C0FFFF7F400D0300100000240020024079
:10145000002102400060025800230240006302584D
:101460000000FEFF03C0F0FF0100FFFF1EF800FCBC
:101470002DE9F04F87B0054614216846FEF764FF5A
:101480003F4B00243C4A0327DFF8F8C04FF4806943
:101490002E68083219684FF4006A37486645DFF84D
:1014A000DC804FF4005B01F101012ED101291960AC
:1014B00007D1016841F020010160006800F02000C0
:1014C0000590106840F001001060106869460294B1
:1014D00000F0010005900120CDE90007404601F031
:1014E000A1F8294E0927294B06F10C003360C6E903
:1014F000017480E8100EF46130463462746233E0A7
:10150000EE64B56307B0BDE8F08FDFF884C06645D0
:10151000F8D10129196007D1016841F0200101606B
:10152000006800F020000590106840F00100106095
:1015300010686946029400F0010005900420CDE98E
:101540000007404601F06EF80F4E0A270F4B783621
:1015500006F10C0018333360C6E9017480E8100E00
:10156000F46130463462746200F07AFE0028C7D01D
:10157000FFF7B5FBC4E70000D8440258000002584A
:1015800000000024002002408001002410000240DE
:10159000002102402DE9F84F044601F065F9009062
:1015A0003CB194F83500022806D080216165002006
:1015B000E4E00120BDE8F88FC74DC74EC649183595
:1015C00020683036DFF81483DFF814938842DFF8A0
:1015D00014A3DFF814B32ED0A8422CD0B0422AD0E6
:1015E000404528D0484526D0504524D0584522D0E3
:1015F000BD4A183290421ED0BC4A90421BD0BB4A12
:101600001832904217D0B94A3032904213D0B74ABC
:10161000483290420FD0B54A603290420BD0B34A64
:101620007832904207D0B14A9032904203D0AF4A0C
:10163000A832904209D1026822F01E02026020689E
:10164000426922F08002426103E0026822F00E0249
:10165000026027688F4238464DD0A8424BD0B04236
:1016600049D0404547D0484545D0504543D05845DE
:1016700041D09D4A183290423DD09C4A90423AD087
:101680009A4A1832904236D0984A3032904232D03C
:10169000964A483290422ED0944A603290422AD0E4
:1016A000924A7832904226D0904A9032904222D08C
:1016B0008E4AA83290421ED08D4A90421BD08C4A4E
:1016C0001432904217D08A4A2832904213D0884A66
:1016D0003C3290420FD0864A503290420BD0844A1E
:1016E0006432904207D0824A7832904203D0804AD6
:1016F0008C32974204D1206E026822F4807202601C
:1017000075492068884228D0A84226D0B04224D00B
:10171000404522D0484520D050451ED058451CD0C9
:1017200071491831884218D07049884215D06F49E4
:101730001831884211D06D49303188420DD06B4943
:101740004831884209D069496031884205D06749EB
:101750007831884201D065499031016821F001015A
:1017600001600EE001F080F80099401A052808D9C0
:10177000202262650321002084F8351084F83400AB
:1017800017E73868C007EDD1534A0121206890421D
:101790002ED0A8422CD0B0422AD0404528D048456F
:1017A00026D0504524D0584522D04F4B183398426C
:1017B0001ED04E4B98421BD04C4B1833984217D03A
:1017C0004A4B3033984213D0484B483398420FD09D
:1017D000464B603398420BD0444B7833984207D045
:1017E000424B9033984203D0404BA833984208D1E3
:1017F00094F85C703F23A06D07F01F07BB40836027
:1018000007E094F85C30A06D03F01F0301FA03F3C6
:101810004360206890424DD0A8424BD0B04249D09E
:10182000404547D0484545D0504543D0584541D024
:101830002D4A183290423DD02C4A90423AD02B4A41
:101840001832904236D0294A3032904232D0274A5C
:10185000483290422ED0254A603290422AD0234A04
:101860007832904226D0214A9032904222D01F4AAC
:10187000A83290421ED01E4A90421BD01C4A1432FD
:10188000904217D01A4A2832904213D0184A3C325C
:1018900090420FD0164A503290420BD0144A643214
:1018A000904207D0124A7832904203D0104A8C32CC
:1018B00090420BD1D4E919024260E06E30B1026867
:1018C00022F480720260D4E91C024260002084F895
:1018D000351084F834006DE61000024058000240D4
:1018E0007000024088000240A00002401004024044
:1018F000085402582DE9F05F28B190F835100229FC
:1019000004D0802141650120BDE8F09F904C904BB0
:101910000168183C18338E4ADFF83C92A1428D4C86
:10192000DFF838E28E4FDFF83CB2DFF83CA28F4D93
:101930008F4E31D091422FD099422DD0A1422BD041
:10194000494529D0714527D0B94225D0DFF810C2CA
:101950000CF1180C61451FD0DFF808C2ACF1600C27
:10196000614519D0DFF8FCC1ACF1480C614513D0DA
:10197000DFF8F0C1ACF1300C61450DD0DFF8E4C107
:10198000ACF1180C614507D0594505D0514503D03D
:10199000A94201D0B1422CD1DFF8B4C14FF0040804
:1019A00080F83580ACF1180C61451DD091421BD0F8
:1019B000994219D0A14217D0494515D0714513D08D
:1019C000B94211D06648183081420DD06548603860
:1019D000814209D063484838814205D06148303897
:1019E000814201D05F481838086820F00100086083
:1019F000ABE0D1F800C02CF00E08DFF854C1C1F8FC
:101A00000080ACF1180C0168614527D0914225D0C7
:101A1000994223D0A14221D049451FD071451DD004
:101A2000B9421BD0DFF838C10CF1180C614515D054
:101A3000DFF830C1ACF1600C61450FD0DFF824C194
:101A4000ACF1480C614509D0DFF818C1ACF1300C9D
:101A5000614503D0DFF80CC1ACF1180CD1F800C01F
:101A60002CF0010CC1F800C0DFF8E4804FF0010C4D
:101A70000168A8F11808414546D0914244D09942E6
:101A800042D0A14240D049453ED071453CD0B942F8
:101A90003AD0334A1832914236D0324A603A9142B3
:101AA00032D0304A483A91422ED02E4A303A9142B2
:101AB0002AD02C4A183A914226D0594524D0514573
:101AC00022D0A94220D0B1421ED02A4A91421BD036
:101AD000284A1432914217D0264A2832914213D014
:101AE000244A3C3291420FD0224A503291420BD0CC
:101AF000204A6432914207D01E4A7832914203D084
:101B00001C4A8C32914218D1016E0A6822F480720C
:101B10000A6090F85C20816D02F01F020CFA02F25C
:101B20004A60D0E919124A60C16E31B10A6822F4E4
:101B300080720A60D0E91C124A600022016D80F8B0
:101B400035C080F8342001B188470020DCE6000071
:101B50002800024058000240700002408800024005
:101B6000A00002407004024088040240A004024029
:101B7000B8040240085402582DE9FC5F0446F74EB1
:101B80000020DFF8D88300904FF41652F44808F193
:101B90001808A56DDFF8C493DFF8C0A3016809F148
:101BA000300920680AF1480AB1FBF2F1B042019114
:101BB0002F68D5F800C0DFF8ACB335D04146884275
:101BC00032D0484530D050452ED058452CD0E5492C
:101BD0001831884228D0E3493031884224D0E14985
:101BE0004831884220D0E04988421DD0DE49183172
:101BF000884219D0DC493031884215D0DA49483161
:101C0000884211D0DFF860E30EF1600E70450BD012
:101C1000D54A7832904207D0D34B9033984203D0C4
:101C2000D149A83188427DD194F85C20082102F086
:101C30001F0201FA02F23A424AD0B04232D0404585
:101C400030D048452ED050452CD058452AD0C54AD2
:101C50001832904226D0C34A3032904222D0C14A34
:101C6000483290421ED0C04A90421BD0BE4A183221
:101C7000904217D0BC4A3032904213D0BA4A483210
:101C800090420FD0B84A603290420BD0B64A7832B8
:101C9000904207D0B44A9032904203D0B24AA83260
:101CA000904203D1026802F0040202E0026802F0EE
:101CB00008026AB1026822F00402026094F85C0033
:101CC00000F01F008140A960606D40F00100606578
:101CD00094F85C00012100F01F008140394240D09F
:101CE0002068B04234D0404532D0484530D05045CD
:101CF0002ED058452CD09B4A1832904228D0994A71
:101D00003032904224D0974A4832904220D0964AAE
:101D100090421DD0944A1832904219D0924A3032E3
:101D2000904200E0AFE113D08F4A483290420FD08A
:101D30008D4A603290420BD08B4A7832904207D065
:101D4000894A9032904203D0874AA83290427DD18E
:101D5000406910F0800F04D0A960606D40F002006F
:101D6000606594F85C00042100F01F008140394256
:101D70003ED02068B04232D0404530D048452ED0C9
:101D800050452CD058452AD0764A1832904226D059
:101D9000744A3032904222D0724A483290421ED069
:101DA000714A90421BD0704A1832904217D06E4A46
:101DB0003032904213D06C4A483290420FD06A4A77
:101DC000603290420BD0684A7832904207D0664A1F
:101DD0009032904203D0644AA83290424ED10068BB
:101DE00010F0020F04D0A960606D40F0040060653F
:101DF00094F85C00102100F01F008140394258D057
:101E00002068B04234D0404532D0484530D05045AB
:101E10002ED058452CD0534A1832904228D0514ADF
:101E20003032904224D04F4A4832904220D04E4A1D
:101E300090421DD04C4A1832904219D04A4A303252
:101E4000904215D0484A4832904200E014E00FD04A
:101E5000454A603290420BD0434A7832904207D0D4
:101E6000414A9032904203D03F4AA832904207D173
:101E7000006800F0080006E0006872E70068B7E755
:101E8000006800F00400A0B1A9602068016849035F
:101E900004D50068000308D5A16C07E00168C905F6
:101EA00003D4016821F008010160216C09B12046CA
:101EB000884794F85C00202100F01F0081403942DF
:101EC00079D02068B04232D0404530D048452ED03D
:101ED00050452CD058452AD0224A1832904226D05C
:101EE000204A3032904222D01E4A483290421ED0C0
:101EF0001D4A90421BD01C4A1832904217D01A4AF1
:101F00003032904213D0184A483290420FD0164ACD
:101F1000603290420BD0144A7832904207D0124A75
:101F20009032904203D0104AA832904203D1006808
:101F300000F0100002E0006800F00200B0B3A960F9
:101F400094F835000428206801680FD049037ED535
:101F5000006800032BD4616C2AE0000010000240EE
:101F600010000024700002401004024021F016010D
:101F700001602068416921F080014161206C08B94D
:101F8000A06C20B12068016821F00801016094F87C
:101F90005C303F21012003F01F0300229940A9601B
:101FA00084F8350084F83420216D65E003E0E16BAE
:101FB00009B120468847606D00287DD0606DC0075C
:101FC00059D02068042184F83510B0422BD0404508
:101FD00029D0484527D0504525D0584523D09D4984
:101FE000884220D09B49183188421CD09949303111
:101FF000884218D09849884215D0974918318842AC
:1020000011D09549303188420DD0934948318842EA
:1020100009D091496031884205D08F497831884292
:1020200001D08D499031016821F0010101602068E3
:102030000099019A491C0091914202D80168C90790
:10204000F6D10068C00710D003200FE0FFE7016859
:10205000C905ACD403680121002223F010030360FA
:1020600084F8351084F83420A1E7012084F8350085
:10207000002084F83400E16C00291DD002B0204615
:10208000BDE8F05F0847754988421DD07349143197
:10209000884219D071492831884215D06F493C31A6
:1020A000884211D06D49503188420DD06B4964315E
:1020B000884209D0694900E084E07831884203D041
:1020C00066498C3188427DD194F85C800427016890
:1020D00008F01F0807FA08F717EA0C0F009746D018
:1020E0004F0744D500980F04686003D5C8033CD45B
:1020F000A16CC1E7880638D42068B0422DD055497C
:102100006039884229D0484527D0504525D05845C8
:1021100023D05049884220D04E49183188421CD0E3
:102120004C493031884218D04B49884215D04A4931
:102130001831884211D04849303188420DD0464983
:102140004831884209D0704507D0904205D0984266
:1021500003D04149A831884203D1016821F0080128
:1021600002E0016821F004010160216C84E702278C
:1021700007FA08F717EA0C0F00974ED08F074CD5D7
:1021800000980F04686003D5C80344D4616C73E7FA
:10219000880640D42068B0422FD02E49603988424A
:1021A0002BD0484529D0504527D0584525D029491E
:1021B000884222D02749183188421ED02549303123
:1021C000884200E044E018D02349884215D02249D3
:1021D0001831884211D02049303188420DD01E4933
:1021E0004831884209D0704507D0904205D09842C6
:1021F00003D01949A831884203D1016821F01401A4
:1022000002E0016821F00A010160012184F8351023
:10221000002084F83400E16B2EE7082202FA08F26D
:1022200012EA0C0F14D0090712D5016821F00E0133
:10223000016094F85C100120002201F01F0100FAF7
:1022400001F16960606584F8350084F8342012E794
:10225000BDE8FC9F88000240100402400854025868
:102260002DE9F05F044600F0FFFA002C07467DD010
:10227000E34E022120684FF00308DFF888934FF007
:102280000005DFF884A3B042DFF880B334D0DC4A25
:102290001832904230D048452ED050452CD0584569
:1022A0002AD0DA4A1832904226D0D84A30329042A8
:1022B00022D0D64A483290421ED0D54A90421BD0F6
:1022C000D34A1832904217D0D14A3032904213D0BC
:1022D000CF4A483290420FD0CD4A603290420BD064
:1022E000CB4A7832904207D0C94A9032904203D00C
:1022F000C74AA83290427DD184F83510B04284F8A4
:1023000034502ED0BE49183188422AD0484528D0B2
:10231000504526D0584524D0BC491831884220D099
:10232000BA49303188421CD0B8494831884218D067
:10233000B749884215D0B6491831884211D0B449FE
:10234000303188420DD0B2494831884209D0B04975
:102350006031884205D0AE497831884201D0AC491D
:102360009031016821F00101016008E027E100BF20
:1023700000F07AFAC01B052801D920211CE1206851
:102380000068C007F4D104F108002168D4E9053CD5
:102390008E4685C809681043D4E907281F43636A3D
:1023A00038439C4F40EA0C001043394040EA080093
:1023B000042B40EA010003D1D4E90B121143084376
:1023C000954909686FF30F01B1F1005F0FD36168A0
:1023D000A1F12902052A08D9163A032A05D9083A93
:1023E000012A02D94F39032901D840F48010CEF8D0
:1023F000000000E023E02068676A4069042F20F0B5
:10240000070047EA00070DD1D4E90A01074349B1A3
:102410002046FEF739FC28B140206065012184F890
:102420003510CCE0206847612046FEF74BFB94F85E
:102430005C203F2102F01F029140816054E0774A06
:1024400090421BD0754B1433984217D0734B2833EE
:10245000984213D0714B3C3398420FD06F4B50339E
:1024600098420BD06D4B6433984207D06B4B783356
:10247000984203D0694B8C3398427DD184F8351053
:1024800084F83450664B0168A26801EA030E402AC2
:1024900073D0802A72D00022D4E90378D4E90531C0
:1024A00042EAD70242EAD8085C4AD4E9077C48EA03
:1024B000D30848EAD10141EAD701524241EA1C114E
:1024C000142341EA0E01016020681044B0FBF3F0D0
:1024D0008000E0652046FEF7F5FA94F85C200121C3
:1024E00002F01F02914041602068B04257D0444939
:1024F0001831884253D0484551D050454FD05845A7
:102500004DD042491831884249D040493031884243
:1025100045D03E494831884241D03D4988423ED06D
:102520003B49183188423AD039493031884236D057
:1025300037494831884232D03549603188422ED0FF
:102540003349783188422AD031499031884226D0A7
:102550002F49A831884222D0304988421FD02F49C4
:10256000143188421BD02D492831884217D02B497D
:102570003C31884213D002E01DE017E018E0274903
:10258000503188420BD025496431884207D0234915
:102590007831884203D021498C31884229D12046A4
:1025A000FEF7EAFAA06880280CD00CE0102273E74E
:1025B0004FF4804270E74021616584F83580012046
:1025C000BDE8F09F6560216E20790860D4E91901AB
:1025D00041606068401E072808D82046FEF71AFBB5
:1025E000E06E0560D4E91C01416002E0E566256704
:1025F00065670120656584F835000020E0E700008C
:1026000010000240400002405800024070000240AA
:10261000100402403F8010FE0010005C0854025875
:102620000F00FEFF2DE9F84F03247D4D00234FF0EE
:1026300001094FF0B04B4FF00F0AE9E009FA03F738
:102640003A4076D00E7906F00306012E01D0022E14
:1026500018D1D0F808C04FEA430ECE6804FA0EF83D
:102660002CEA080C06FA0EF646EA0C068660D0F84C
:1026700004C00E792CEA070CC6F300169E4046EA09
:102680000C0646600E79F643B6070BD0C6684FEAD3
:1026900043088F6804FA08FC26EA0C0607FA08F7D4
:1026A0003743C7600E7906F00306022E12D1DE080A
:1026B0000F694FEA437C00EB8606B646366A4FEA5E
:1026C000DC6C0AFA0CF807FA0CF726EA080637431E
:1026D000CEF820700F7906684FEA430807F0030729
:1026E00004FA08FC07FA08F726EA0C0637430760E5
:1026F0004E6816F4403F1CD04A4E376847F0020738
:10270000376036689F0706F00206009623F003063E
:1027100006F1B046B6463F0FD6F80864DFF80881E8
:102720000AFA07FC404526EA0C0603D14FF0000CDC
:1027300041E06CE0DFF8F4C0604502D14FF0010CDD
:1027400039E0DFF8ECC0604502D14FF0020C32E016
:10275000DFF8E0C0604502D14FF0030C2BE0DFF85A
:10276000D8C0604502D14FF0040C24E0DFF8CCC0A3
:10277000604502D14FF0050C1DE0DFF8C4C0604594
:1027800002D14FF0060C16E0DFF8B8C0604502D168
:102790004FF0070C0FE0DFF8B0C0604502D14FF0FA
:1027A000080C08E0DFF8A4C0604502D14FF0090C26
:1027B00001E04FF00A0C0CFA07FC4CEA060CCEF8CC
:1027C00008C44F68DBF80060FF0226EA020600D565
:1027D00016435F46CBF80060D1F804C0DBF8046014
:1027E0005FEA8C2C26EA020600D516437E606E68EE
:1027F0004F6826EA0206BF0300D516436E602E68B6
:102800004F6826EA0206FF0300D516432E605B1CC4
:102810000A6832FA03F67FF411AFBDE8F88F0000C2
:1028200080000058F4440258000002580004025886
:1028300000080258000C02580010025800140258F8
:1028400000180258001C02580020025800240258A8
:102850000AB1816170470904FBE700000148006884
:10286000000C70470010005C014880687047000051
:102870000400002402488168027811448160704796
:1028800004000024032010B500F0D4F801F0B6FADB
:102890000F4A104914681368C4F3032203F00F03AE
:1028A0008A5CC95C02F01F0201F01F01D0400A4A95
:1028B00020FA01F11160094908600F2000F010F8BA
:1028C00008B1012010BD00F079F8002010BD000013
:1028D0001844025804710008140000241000002459
:1028E00070B50D4D04462878A0B14FF47A71B1FB54
:1028F000F0F00A490968B1FBF0F001F0DCFD48B9DD
:10290000102C07D200222146501E00F073F8002040
:102910006C6070BD012070BD040000241000002414
:10292000154BF0B5083B427813491A600B680A1F33
:1029300023F001030B6043681360057BC67A827A3B
:10294000437B2D07847B45EA0665C77B90F809C069
:10295000067A90F800E045EAC24040EA834040EA47
:10296000444040EA074040EA0C2040EA460040EA82
:102970000E000860F0BD0000A0ED00E0BFF35F8F27
:10298000044800210368034A23F480330360703253
:102990001160704724ED00E0074A40F0010006494D
:1029A00070321060086840F480300860BFF34F8FC9
:1029B000BFF36F8F7047000024ED00E0054808B5B5
:1029C000016841F002010160006800F0020000901F
:1029D00008BD0000F4440258002809DB410900F05A
:1029E0001F028900012001F1E0219040C1F800019F
:1029F000704700000E4BF0B41B680D46C3F3022372
:102A0000C3F10706042E00D90426191D072901D297
:102A1000002300E0DB1E012404FA06F19C40491E5D
:102A20002940641E994014402143F0BC03F060BD6E
:102A30000CED00E0064900F0070210B54FF6FF0468
:102A40000868044B204040EA02201843086010BD8B
:102A50000CED00E00000FA05134970B50A68D24396
:102A6000520705D5096801F00701814213D118E02A
:102A70000A6822F0070202430A60FFF7F5FE0A4DDA
:102A80004FF47A760446083D07E000BFFFF7ECFEFE
:102A9000001BB04201D9012070BD2868C0438004EA
:102AA000F4D4002070BD00000C48025810B501F0AD
:102AB0005FF905490968054AC1F30211515C01F04B
:102AC0001F01C84010BD00002044025804710008D6
:102AD0004A4930B5494C0B1D0A680C3409681D6819
:102AE000246802F0030305F00102C1F30511C4F3E9
:102AF000CC04002914FB02F200EE102AF8EE400A82
:102B000076D0414A9FED3E1ADFED3E1AB7EE000A3D
:102B100023B1012B5AD0022B18D15CE0374C283C52
:102B200023689B0612D5394B246801EE901A116870
:102B3000C4F3C104F8EE612AE34001EE903AC1F318
:102B40000801F8EE611A81EEA22A07E002EE101ADF
:102B50001168F8EE422A81EEA22A45E001EE901AB1
:102B60001168F8EE611A40EE811A71EE800A62EE89
:102B7000200AC1F3462101EE101AB8EE411A31EED7
:102B8000001AC0EE811ABCEEE11A80ED001A11683D
:102B9000C1F3064101EE101AB8EE411A31EE001AE7
:102BA000C0EE811ABCEEE11A80ED011A1168C1F382
:102BB000066101EE101AB8EE411A31EE000A80EEFD
:102BC000801ABCEEC10A80ED020A30BD01EE901AF7
:102BD000DFED0F2A03E001EE901ADFED0E2A1168F7
:102BE000F8EE611A82EEA12AC1F30801B6E7FFE709
:102BF000002101604160816030BD0000284402581E
:102C0000000000390024744C304402580090D00376
:102C10000024744A001BB74B494930B5484C0B1D82
:102C20000A68143409681D68246802F00303C5F3B8
:102C30000012C1F30531C4F3CC04002914FB02F2E5
:102C400000EE102AF8EE400A75D03F4A9FED3D1A7B
:102C5000B7EE000A6BB1DFED3D1A012B01D0022B5C
:102C600064D002EE101A1168F8EE422A81EEA22A10
:102C700021E0334C283C23689B0612D5344B246852
:102C800001EE901A1168C4F3C104F8EE612AE34022
:102C900001EE903AC1F30801F8EE611A81EEA22A22
:102CA0000BE001EE901ADFED2B2A00BFF8EE611A5F
:102CB000116882EEA12AC1F3080101EE901A116891
:102CC000F8EE611A40EE811A71EE800A62EE200A77
:102CD000C1F3462101EE101AB8EE411A31EE001A86
:102CE000C0EE811ABCEEE11A80ED001A1168C1F342
:102CF000064101EE101AB8EE411A31EE001AC0EE8C
:102D0000811ABCEEE11A80ED011A1168C1F3066167
:102D100001EE101AB8EE411A31EE000A80EE801A68
:102D2000BCEEC10A80ED020A30BD04E001EE901A4B
:102D3000DFED092ABAE70021016041608160F3E715
:102D40002844025800000039384402580024744ACC
:102D50000090D0030024744C001BB74B494930B598
:102D6000484C0B1D0A681C3409681D68246802F071
:102D70000303C5F30022C1F30551C4F3CC040029B9
:102D800014FB02F200EE102AF8EE400A75D03F4A1A
:102D90009FED3D1AB7EE000A6BB1DFED3D1A012B36
:102DA00001D0022B64D002EE101A1168F8EE422A0C
:102DB00081EEA22A21E0334C283C23689B0612D5E1
:102DC000344B246801EE901A1168C4F3C104F8EE84
:102DD000612AE34001EE903AC1F30801F8EE611A6E
:102DE00081EEA22A0BE001EE901ADFED2B2A00BF44
:102DF000F8EE611A116882EEA12AC1F3080101EE12
:102E0000901A1168F8EE611A40EE811A71EE800A8C
:102E100062EE200AC1F3462101EE101AB8EE411A03
:102E200031EE001AC0EE811ABCEEE11A80ED001AF4
:102E30001168C1F3064101EE101AB8EE411A31EEE5
:102E4000001AC0EE811ABCEEE11A80ED011A116879
:102E5000C1F3066101EE101AB8EE411A31EE000A14
:102E600080EE801ABCEEC10A80ED020A30BD04E09B
:102E700001EE901ADFED092ABAE7002101604160F6
:102E80008160F3E7284402580000003940440258AA
:102E90000024744A0090D0030024744C001BB74BEC
:102EA0002DE9F04FAC4A0546DFF8A8A280F4807007
:102EB000DFF8AC9289B01311AA4C0843A748AAF1D5
:102EC00004064FF0805C4FF000582CD085F400775A
:102ED0000F4357D0DFF87CB285F480670F430BF1C6
:102EE000080B61D085F400670F4374D085F48057D8
:102EF0000F436ED085F400570F434FF480394FF4E1
:102F0000003E67D085F400270F4371D085F48037E9
:102F10000F436ED085F480460E436BD085F400429B
:102F20000A4368D02AE0DAF8001001F00701052909
:102F300024D2DFE801F075BC7D25B10006A8FFF7BB
:102F4000C7FD079809B0BDE8F08F6846FFF764FE3B
:102F50000098F7E703A8FFF701FF0398F2E720685E
:102F6000C0F3C10022FA00F0ECE72268D20571D567
:102F700061456FD11846E5E74145E3D00020E1E720
:102F80004846DFE7DAF8001001F4E07180294FD0FD
:102F900004DC002944D04029F0D188E0C029EFD0DA
:102FA000B1F5807FEAD177E0DBF8001001F4600131
:102FB000B1F5800F3CD004DC91B3B1F5001FDDD139
:102FC00075E0B1F5C00FDBD0B1F5000FD6D163E0ED
:102FD00001E018E030E0DBF8001001F0E061B1F151
:102FE000007F25D008DCD9B1B1F1807FC6D15EE089
:102FF00049E06CE079E09CE0B1F1407FC0D0B1F1F4
:10300000806FBBD148E0DAF8001001F4E041B1F57F
:10301000005F0DD005DC19B1B1F5805FAED146E09F
:1030200094E0B1F5405FABD0B1F5804FA6D133E06D
:1030300020688000A2D58DE7DAF8001001F4E021C5
:10304000B1F5403F6CD006DC61B149457AD071459D
:1030500094D157E037E0B1F5802F65D0B1F5A02FBE
:103060008CD10CE000F0A6FE6CE76846FFF7D4FDBB
:10307000019867E703A8FFF771FE049862E72168EB
:103080008903F1D47AE7DBF8001011F440310ED057
:10309000494510D07145F5D13168256801F040519E
:1030A0006D077FF562AF00297FF45FAF57E72068B7
:1030B0000001E7D549E720688000E3D503A8FFF7C2
:1030C0004DFE05983EE722689203DBD554E7306851
:1030D00010F480303AD04845D4D120680001D1D5D1
:1030E0006846FFF799FD02982CE7DBF8001001F025
:1030F000E041B1F1405F13D008DC71B1614521D0EE
:103100004145BFD120688000B4D437E7B1F1804F8A
:103110000AD0B1F1A04FB2D030E7FFF7C7FC11E7FA
:1031200020684007AED51AE72068C005AAD521E778
:1031300008E0DAF8001011F04051A0D0614505D048
:1031400041459FD1206800018FD417E72068800196
:1031500098D5F3E6504402580090D00300366E0133
:103160000080BB00004402582DE9FE4F0546DFF801
:10317000E48350F8081B0024F64FC943019005F181
:103180002800264608F12408009008011DD4A86EE6
:1031900050B1B0F5801F0CD0B0F5001F0ED0B0F5C7
:1031A000401F1ED001240FE0386840F40030386022
:1031B00017E00198022102F03BF803E00098022199
:1031C00002F0C6F804000CD026462888C043C0058B
:1031D00023D4A86D05281ED2DFE800F00C11161BC1
:1031E0001B00AA6ED8F8001021F440111143C8F852
:1031F0000010EAE7386840F40030386009E00198D0
:10320000002102F015F803E00098002102F0A0F878
:10321000044674B100E0012426462888C043800596
:1032200028D4E86D80281ED00CDC90B140280ED147
:1032300014E0AA6DD8F8001021F007011143C8F876
:103240000010EAE7C02813D0B0F5807F10D0012429
:103250000FE0386840F40030386009E00198002140
:1032600001F0E6FF03E00098002102F071F8044647
:103270009CB126462888DFF8DC92C04309F12C096E
:1032800040052CD4D5F8A800B0F5800F20D00DDC77
:10329000A0B1B0F5001F0FD115E0EA6DD8F800100D
:1032A00021F4E0711143C8F80010E3E7B0F5C00F56
:1032B00013D0B0F5000F10D001240FE0386840F4AF
:1032C0000030386009E00198002101F0B1FF03E00F
:1032D0000098002102F03CF804467CB1264628887C
:1032E000C04300052DD4D5F8AC00B0F1007F21D04B
:1032F0000EDCA8B1B0F1807F10D116E0D5F8A8207F
:10330000D9F8001021F460011143C9F80010E6E774
:10331000B0F1407F13D0B0F1806F10D001240FE0E6
:10332000386840F40030386009E00198002101F06D
:103330007FFF03E00098002102F00AF8044674B110
:1033400026462868C04380011FD4E86CD8B11028F5
:103350000FD0202812D0302815D0012414E0D5F841
:10336000AC20D9F8001021F0E0611143C9F8001039
:10337000E7E7386840F40030386004E00198022143
:1033800001F056FF044674B126462888C043C004A5
:103390002BD4286EB0F5005F20D00DDCA0B1B0F5C5
:1033A000805F0FD115E06B48EA6C2030016821F096
:1033B000300111430160E8E7B0F5405F13D0B0F58C
:1033C000804F10D001240FE0386840F4003038609E
:1033D00009E00198002101F02BFF03E00098002193
:1033E00001F0B6FF04468CB126462888C04380040D
:1033F00029D4686EB0F5403F23D010DC08B3B0F597
:10340000803F14D0B0F5003F0FD115E02A6ED8F8F8
:10341000001021F4E0411143C8F80010E5E7B0F5D1
:10342000802F0ED0B0F5A02F0BD001240AE0019818
:10343000012101F0FDFE03E00098012101F088FF69
:10344000044694B126462888C04340042AD4D5F8BF
:10345000B000B0F1405F23D010DC08B3B0F1805F62
:1034600014D0B0F1005F0FD115E06A6ED8F80010EB
:1034700021F4E0211143C8F80010E4E7B0F1804FD7
:103480000ED0B0F1A04F0BD001240AE00198012129
:1034900001F0CEFE03E00098012101F059FF04463F
:1034A00074B126462888C04300041FD4286FD8B1C1
:1034B000B0F1805F0ED0B0F1005F10D0012414E0B5
:1034C000D5F8B020D9F8001021F0E0411143C9F837
:1034D0000010E7E7386840F40030386004E00198F5
:1034E000012101F0A5FE044674B126462868C043B8
:1034F000C0011ED4A86CD0B101280ED0022811D072
:10350000032814D0012413E02A6FD8F8001021F00A
:1035100040511143C8F80010E8E7386840F4003023
:10352000386004E00198022101F082FE0446ACB14B
:1035300026462868DFF81CB0C043ABF11C0B4002E4
:1035400052D40548016841F480710160FFF78CF99D
:10355000824611E02C44025800480258FA48AA6CEE
:10356000016821F0030111430160E2E7FFF77CF9F4
:10357000A0EB0A00642835D8F4480068C005F5D5EA
:103580008CBBDFF8C4A3B5F8B4100AF1240ADAF84A
:10359000000001F4407100F44070884211D0DAF864
:1035A0000010DAF8002021F4407142F48032CAF8A9
:1035B0000020DAF8002022F48032CAF80020CAF88D
:1035C0000010D5F8B400B0F5807F1AD1FFF74CF9A0
:1035D000029012E0FFF748F90299411A41F288304F
:1035E00081420AD9032426462878DFF85CA3C04329
:1035F0000AF1080AC00721D03CE0DAF80000800791
:10360000E8D5D5F8B410C1F30120032858460DD0F1
:10361000016821F47C510160B5F8B420DAF800109B
:10362000C2F30B021143CAF80010DDE7C84A036871
:1036300002EA111223F47C511143ECE7E86F1828D9
:1036400016D005DCA0B1082808D0102804D10AE063
:1036500020280DD028280BD001240AE00198012150
:1036600001F0E6FD03E00098012101F071FE04463F
:1036700064B126462878C04380071ED4A86F062868
:1036800019D2DFE800F0160C11161616EA6FDAF8F8
:10369000001021F038011143CAF80010EAE7019840
:1036A000012101F0C5FD03E00098012101F050FE69
:1036B00004467CB100E0012426462878C043400738
:1036C0001FD4D5F89400062819D2DFE800F0160CB4
:1036D00011161616AA6FDAF8001021F0070111432F
:1036E000CAF80010E9E70198012101F0A1FD03E00B
:1036F0000098012101F02CFE0446A4B100E0012451
:1037000026462878C04380062BD4D5F89000B0F127
:10371000405F24D011DC10B3B0F1805F15D0B0F160
:10372000005F10D116E0D5F89420D9F8001021F0F0
:1037300007011143C9F80010E3E7B0F1804F0ED044
:10374000B0F1A04F0BD001240AE00198002101F054
:103750006FFD03E00098022101F0FAFD044694B1E8
:1037600026462878C04340062BD4D5F89C00B0F5F7
:10377000406F24D011DC10B3B0F5806F15D0B0F5D8
:10378000006F10D116E0D5F89020DAF8001021F083
:10379000E0411143CAF80010E3E7B0F5805F0ED0B6
:1037A000B0F5A05F0BD001240AE00198002101F0E0
:1037B0003FFD03E00098022101F0CAFD044694B1E8
:1037C00026462878C04300062BD4D5F8A000B0F5D3
:1037D000C04F24D011DC10B3B0F5005F15D0B0F5A8
:1037E000804F10D116E0D5F89C20D9F8001021F4B4
:1037F000E0511143C9F80010E3E7B0F5004F0ED0D7
:10380000B0F5204F0BD001240AE00198002101F00F
:103810000FFD03E00098022101F09AFD044654B127
:1038200026462878C04300071ED4D5F88400B0F59A
:10383000805F0AD00FE0D5F8A020D9F8001021F45D
:1038400060411143C9F80010EBE70098022101F034
:103850007FFD00B10126D5F88420DAF8001021F4AC
:1038600040511143CAF800102878C043C00613D451
:10387000D5F89800B0F5807F05D10098022101F0BD
:1038800067FD00B10126D5F89820D9F8001021F481
:1038900040711143C9F800102868C043000316D4D2
:1038A000D5F8A40038B1B0F5803F09D0B0F5003F9D
:1038B0000BD001240AE00198002101F0B9FC03E0DB
:1038C0000098022101F044FD04468CB12646286888
:1038D000C043400322D4D5F88800B0F5801F11D032
:1038E000B0F5001F13D0B0F5401F15D0012414E02F
:1038F000D5F8A420D9F8001021F440311143C9F8BB
:103900000010E4E7386840F40030386004E00098C4
:10391000012101F01DFD04465CB126462868C04324
:10392000C00323D4286DA8B1B0F5803F17D001247F
:103930001BE0D5F88820DAF8001021F4401111437B
:10394000CAF80010EAE700004C4402580048025848
:10395000CFFFFF00386840F40030386004E0019881
:10396000022101F065FC0446E4B126462868C04304
:10397000800005D40098022101F0EAFC00B1012684
:103980002868C04380031BD4D5F88000B0B1B0F5DF
:10399000807F0FD0B0F5007F10D0B0F5407F0DD004
:1039A00001240CE05A482A6D016821F4803111434A
:1039B0000160DBE7386840F400303860ECB326463D
:1039C0002868C043C00207D46A6FD8F8001021F0FD
:1039D00000411143C8F800102868C043C00008D453
:1039E000D5F8B820DBF8001021F480411143CBF862
:1039F00000102868C043800207D4EA6ED8F800108F
:103A000021F080711143C8F800102868C0434000BD
:103A10000CD4DBF8001021F40041CBF80010DBF8E7
:103A20000010D5F8BC201143CBF800102868C04323
:103A300008D437486A6D016800E018E021F0405171
:103A4000114301602868C043000208D4D5F88C20D7
:103A5000DAF8001021F440011143CAF80010287967
:103A60000024C04300F0010020430AD00FE0D5F845
:103A70008020DAF8001021F440711143CAF80010D8
:103A80009EE70198002101F0D3FB00B1064628799A
:103A9000C04300F00200204305D10198012101F04C
:103AA000C7FB00B106462879C04300F0040020435C
:103AB00005D10198022101F0BBFB00B1064628792F
:103AC000C04300F00800204305D10098002101F018
:103AD0003FFC00B106462879C04300F010002043A7
:103AE00005D10098012101F033FC00B10646287988
:103AF000C04300F02000044304D10098022101F0EB
:103B000027FC00B916B10120BDE8FE8F0020FBE7BD
:103B10004C4402582DE9F05F04000F467ED0DFF8D8
:103B20003882D8F8000000F00F00B8420CD2D8F864
:103B3000001021F00F013943C8F80010D8F8000038
:103B400000F00F00B84269D12078844D40070AD5B3
:103B50002069296801F07001884204D9296821F0A0
:103B600070010143296020787C4E361D00070AD57C
:103B70006069316801F07001884204D9316821F030
:103B80007001014331602078C0060AD5A069316810
:103B900001F4E061884204D9316821F4E061014315
:103BA00031602078DFF8B4B180060BF1080B0CD53A
:103BB000E1695846DBF8002002F07002914204D916
:103BC000026822F070020A430260207880070AD55A
:103BD000E068296801F00F01884204D9296821F0C2
:103BE0000F01014329602078C0073ED05B49A268DD
:103BF0002868183920F47060104328606068022833
:103C000018D0032819D00968012819D049070029BC
:103C10004ADADFF848A1AAF1080A00E044E0DAF83D
:103C2000002022F007020243CAF80020FEF71CFE23
:103C3000814612E009688903E9E709688901E6E736
:103C4000C905E4E7FEF710FEA0EB090141F2883058
:103C5000814202D90320BDE8F09F6168DAF80000D4
:103C600000F03800B0EBC10FECD1207880070AD506
:103C7000E068296801F00F01884204D2296821F028
:103C80000F0101432960D8F80010404601F00F01F0
:103C9000B9420BD9016821F00F0139430160006876
:103CA00000F00F00B84201D00120D4E7207840078F
:103CB0000AD52069296801F07001884204D2296878
:103CC00021F0700101432960207800070AD560695E
:103CD000316801F07001884204D2316821F070012E
:103CE000014331602078C0060AD5A069316801F42B
:103CF000E061884204D2316821F4E061014331601F
:103D0000207880060CD5E1695846DBF8002002F0E7
:103D10007002914204D2026822F070020A430260EB
:103D200000F06CF80E492A682B68C2F3032203F0F6
:103D30000F038A5CC95C02F01F0201F01F01D04032
:103D4000084A20FA01F11160074908600748006835
:103D5000BDE8F05FFEF7C4BD0020005218440258D1
:103D6000047100081400002410000024080000243E
:103D700030B500F043F80B4A0B490C4B156814683A
:103D8000C5F3032204F00F048A5C095D02F01F02F0
:103D900001F01F01D040064A20FA01F119601060BD
:103DA000084630BD1844025804710008140000246D
:103DB0001000002400B5FFF7DBFF05490968054A3C
:103DC000C1F30211515C01F01F01C84000BD0000A9
:103DD0001C4402580471000800B5FFF7C9FF0549EB
:103DE0000968054AC1F30221515C01F01F01C84076
:103DF00000BD00001C44025804710008454970B51C
:103E000045480968434B103B11F0380208D00111B6
:103E1000082A03D0102A0BD0182A0BD0084670BDF0
:103E200019688906FBD51968C1F3C101C84070BD86
:103E30003A4870BD3749374D18310C1D24350A6892
:103E4000096826682D6802F0030406F00102C1F338
:103E50000511C5F3CC0515FB02F200EE102AB8EEF1
:103E6000400AE9B32F4ADFED2E0AB7EE001A6CB113
:103E7000DFED2D1A012C01D0022C43D002EE101AD6
:103E80001068F8EE422A81EEA22A1EE01C68A40601
:103E900011D51B6801EE901A1168C3F3C103F8EE47
:103EA000612AD84001EE900AC1F30800F8EE611AC9
:103EB00081EEA22A0BE001EE901ADFED1C2A00BF72
:103EC000F8EE611A106882EEA12AC0F3080001EE34
:103ED000900AF8EE611A40EE201A31EE810A00E0F5
:103EE00015E022EE000A1068C0F34620401C00EEE8
:103EF000900AF8EE600A80EE201ABCEEC10A10EEBD
:103F0000100A70BD01EE901ADFED092AD8E70020F3
:103F100070BD0000104402580090D00300366E01BE
:103F200000000039304402580024744A0024744CC4
:103F3000001BB74B2DE9F05F04007DD0FF4F2078C8
:103F4000FE4D1837DFF8F493103DC00748D0D9F87C
:103F50000000396800F03800102815D0182803D167
:103F600001F0030002280FD06068B0F5803F12D046
:103F700010B1B0F5A02F18D0286820F48030286048
:103F8000286820F4802009E02868800328D560682C
:103F90000028D2D024E0286840F48030286060688F
:103FA00088B1FEF761FC064609E0286840F48020ED
:103FB0002860F0E7FEF758FC801B64286FD828685B
:103FC0008003F7D50CE0FEF74FFC064605E000BF86
:103FD000FEF74AFC801B6428F0D828688003F7D4D9
:103FE000207841F20308D54E0C3E800769D5D9F8F8
:103FF0000000396810F038000ED0182801D1880769
:104000000AD0E06890B3296821F0190101432960C2
:10401000FEF72AFC824631E02868400702D5E068B6
:1040200000288AD0E168286820F019000843286039
:10403000FEF71AFC824607E0DFE000BFFEF714FC43
:10404000A0EB0A000228B9D828684007F6D500BFBF
:10405000FEF704FC40451BD82069402812D0316887
:1040600021F47C3141EA003030602AE018E000BFE2
:10407000FEF7FAFBA0EB0A0002289FD82868400749
:10408000F6D5E5E7306820F47C3040F40030EBE70B
:10409000207C316821F0FE4141EA0060E4E70DE157
:1040A000286820F001002860FEF7DEFB824605E06C
:1040B000FEF7DAFBA0EB0A0002288DD8286840073B
:1040C000F6D42078C0065DD5D9F80000DFF86CB2D0
:1040D000396800F03800ABF1040B082810D018281C
:1040E00003D101F0030001280AD0E0690028286804
:1040F00038D040F080002860FEF7B6FB824623E00F
:104100002868C00523D5E069802876D11FE0206AA1
:10411000202821D0316821F0F84141EA80603060E8
:1041200030E000BF94F82010DBF8002022F07C5231
:1041300042EA0161CBF8001024E000BFFEF794FBD7
:10414000A0EB0A00022898D82868C005F6D5FEF72B
:1041500085FB4045E6D8DAE7306820F0F84040F0CB
:104160008040DCE720F080002860FEF77DFB0646FB
:1041700005E000BFFEF778FB801B02289DD8286869
:10418000C005F7D42078000729D56C4861696430F0
:1041900000298046016811D041F001010160FEF75D
:1041A00063FB064605E000BFFEF75EFB801B0228AE
:1041B000C9D8D8F800008007F6D510E021F0010139
:1041C0000160FEF751FB064605E000BFFEF74CFB21
:1041D000801B022872D8D8F800008007F6D4207817
:1041E000800623D5A0690028286810D040F48050AC
:1041F0002860FEF739FB064605E036E1FEF734FBA2
:10420000801B02285AD828688004F7D50EE020F4D5
:1042100080502860FEF728FB064604E0FEF724FBEA
:10422000801B02284AD828688004F7D420784007E9
:104230004FD5DFF80C81D8F8001041F48071C8F830
:104240000010FEF711FB064605E000BFFEF70CFB71
:10425000801B642832D8D8F80000C005F6D5374E48
:10426000A068603601280AD008B1052813D030684C
:1042700020F001003060306820F0040002E0306877
:1042800040F001003060A06841F2883A90B1FEF73A
:10429000EBFA80460AE0306840F004003060EEE758
:1042A000FEF7E2FAA0EB0801514507D83068800715
:1042B000F6D50EE0FEF7D8FA804607E084E000BFAE
:1042C000FEF7D2FAA0EB080151457DD8306880078F
:1042D000F6D4606AB0B3DFF86480D9F8001008F152
:1042E00020084FF6F87B08F10409C1F3C201032945
:1042F000A8F1040A69D00228286820F0807028609C
:1043000003D0FEF7B1FA044684E0FEF7ADFA0646A4
:1043100005E000BFFEF7A8FA801B022877D82868BE
:104320008001F7D4E26A40F2F331386854F8283F4C
:10433000884340EA02101843386004E010440258F1
:1043400000480258B5E0217B434622894FF4FE0C19
:10435000208A4FF0FE474902267D521E401EA1F5DD
:104360000071C2F308088AB2761E0CEA004042EAE5
:1043700008020243504607EA06610A431A60DAF867
:10438000002022F00102CAF80020D9F80020266A95
:1043900022EA0B0242EAC602C9F80020DAF800104D
:1043A000A26921F00C011143CAF800100168E2690A
:1043B00021F0020111430160016841F48031016084
:1043C000016841F4003101E021E027E0016001686B
:1043D00041F480210160016841F001010160286819
:1043E00040F080702860FEF73FFA044605E000BF09
:1043F000FEF73AFA001B022809D828688001F7D591
:1044000057E000BFFEF730FA001B022802D9032054
:10441000BDE8F09F28688001F4D44AE0396801289B
:10442000D8F8000021D0A26A01F0030393421CD106
:10443000E26AC1F305118A4217D1216BC0F3080269
:10444000491E8A4211D1616BC0F34622491E914236
:104450000BD1A16BC0F30642491E914205D1E16B1D
:10446000C0F30660491E814201D00120D0E7A16C53
:104470004E46D9F80000C0F3CC00814219D0DAF8DA
:104480000000554620F00100CAF80000FEF7ECF9E4
:104490004FEA0007FEF7E8F9B842FBD0A26C30689B
:1044A00020EA0B0040EAC2003060286840F00100BA
:1044B00028600020ACE7401EB0F1807F10B501D32A
:1044C000012010BD4FF0E02460610F21601702F061
:1044D0000FF80020A0610721216110BDF0B590F810
:1044E0003C20012A3BD01F4E012480F83C40022290
:1044F00080F83D2002681C4D5368B242D2F808C0D3
:1045000001D0AA4203D14F6823F470033B430F68E4
:1045100023F070031F4357600268B24213D0B2F118
:10452000804F10D0114B9A420DD0114B9A420AD0B5
:10453000104B9A4207D0AA4205D00F4B9A4202D0A4
:104540000E4B9A4204D189682CF080031943916084
:10455000002180F83D4080F83C100846F0BD022064
:10456000F0BD0000000001400004014000040040D4
:1045700000080040000C00400018004000400140CE
:1045800010B5040003D094F83D0010B107E00120FD
:1045900010BD002084F83C00204600F023F80220E3
:1045A00084F83D002068211D01F038F8012084F8CE
:1045B000480084F83E0084F83F0084F8400084F806
:1045C000410084F8420084F8430084F8440084F8F1
:1045D000450084F8460084F8470084F83D00002038
:1045E00010BD000008B50068B0F1804F08D1054843
:1045F000016841F001010160006800F001000090D5
:1046000008BD0000E844025870B5044690F83C002C
:104610000025012814D03A4B012684F83C60022082
:1046200084F83D0022689068184020F47F40906034
:10463000086870282FD010DC10F00F0F03D022E094
:104640004FF0020070BD4FEA2012072A1BD2DFE8AC
:1046500002F0535353534B394100B0F1101F4BD06C
:1046600009DCB0F5805F0FD0B0F5005F1ED0B0F56B
:10467000801F08D140E0A0F5801120393CD01029DE
:104680003AD0202938D0012584F83D60002084F8F4
:104690003C00284670BD4A682068D1E9021301F049
:1046A00023F82068816841F0770109E04A682068B2
:1046B000D1E9021301F018F82068816841F48041C3
:1046C0008160E1E7CA684968206801F021F8206844
:1046D000502106E0CA684968206801F02AF820687D
:1046E000602101F00BF8CFE7CA684968206801F043
:1046F0000FF820684021F4E7226801461046F0E7F1
:1047000088FFCEFF30B590F88410012918D001221F
:1047100080F884202421C0F8881000222024016819
:104720000B680D6823F0005325F001050D6042660B
:1047300001680B60C0F8884080F88420104630BDC6
:10474000022030BD7047704770B5044690F8840071
:1047500001281DD0012284F884202420C4F8880078
:1047600020680568026822F0010202602068826801
:1047700022F060620A438260204600F0EDFF22686A
:10478000202100201560C4F8881084F8840070BDD2
:10479000022070BD70B5044690F8840001281DD039
:1047A000012284F884202420C4F888002068056849
:1047B000026822F0010202602068826822F06042F2
:1047C0000A438260204600F0C7FF226820210020B3
:1047D0001560C4F8881084F8840070BD022070BD94
:1047E00070477047704700002DE9F04107680025C9
:1047F000044640F60F030226F8693968BA68184281
:104800000AD183067ED501F0200302F0805C53EAD2
:104810000C0377D0616F7EE1D44BDFF854C31340B3
:1048200001EA0C0C53EA0C0C6CD05FEAC07C0CD093
:104830005FEAC15C09D54FF0010CC7F820C0D4F87D
:10484000907047F00107C4F89070870709D5D70723
:1048500007D027683E62D4F8906046F00406C4F89A
:10486000906046070AD5D60708D0276804263E621E
:10487000D4F8906046F00206C4F8906006070CD5A4
:1048800001F020061E4308D0266808233362D4F8BE
:10489000903043F00803C4F8903003050BD54B016A
:1048A00009D526684FF400633362D4F8903043F0A2
:1048B0002003C4F89030D4F89030002B3DD080060F
:1048C00009D501F0200002F08051084303D0616F48
:1048D00009B1204688472168D4F8900089684906C4
:1048E00002D410F0280F2AD0204601F019F82068D1
:1048F000806840061ED52068083050E8001F21F06F
:10490000400100E021E040E80012002AF3D1D4F891
:10491000800078B197490165D4F88000FCF7EAFF80
:1049200000280AD0D4F88000016D00E02046BDE8E0
:10493000F04108472046FFF755FFBDE8F0812046CB
:10494000FFF750FFC4F89050F7E7D4F86CC020236D
:10495000BCF1010F7ED15FEAC06C7BD55FEAC16C10
:1049600078D51020386220688068400673D5D4F866
:10497000802081491068884234D07F4918318842AC
:1049800030D07D49303188422CD07B494831884233
:1049900028D079496031884224D0774978318842DB
:1049A00020D07549903188421CD07349A831884283
:1049B00018D07249884215D070491831884211D0F8
:1049C0006E49303188420DD06C494831884209D057
:1049D0006A496031884205D068497831884201D0FF
:1049E0006649903140684FF480770004000C40D055
:1049F000B4F85C1081423CD9A4F85E00D069B8429A
:104A00002FD0216851E8000F20F4807041E80002A7
:104A1000002AF6D12068083050E8001F21F001017B
:104A200040E80012002AF5D12068083050E8001F45
:104A300021F0400140E80012002AF5D1C4F88C3082
:104A4000E566206850E8001F21F0100140E80012E0
:104A5000002A01E04AE019E0F3D1D4F88000FCF725
:104A600099FD2667B4F85C00B4F85E10401A81B274
:104A700008E0B4F85C1081427FF466AFD069B842B8
:104A8000FAD126672046FFF75DFE56E7B4F85C00D2
:104A9000B4F85E10B4F85E20401A81B2002AF4D057
:104AA0000029F2D0226852E8000F20F4907042E80A
:104AB0000007002FF6D1324F206800F1080050E8BF
:104AC000002F02EA070240E8002CBCF1000FF3D1EE
:104AD000C4F88C30E5666567226852E8000F20F064
:104AE000100042E80003002BF6D1CAE7C60209D540
:104AF000560207D54FF4801038622046BDE8F041D9
:104B0000FFF76FBE06060AD501F0800602F4000228
:104B1000164304D0A16F00297FF408AF0DE74206C9
:104B200011D54A060FD52046016851E8002F22F022
:104B3000400241E80024002CF6D1C0F88830856797
:104B400000F08CF9F9E6020206D54A0004D52046A9
:104B5000BDE8F041FFF744BEC00196D5002994DAC4
:104B60002046BDE8F041FFF7EEBD00000100001057
:104B7000200100040F5900081000024010040240F8
:104B8000FEFFFFEF10B5040003D0D4F8880010B189
:104B900007E0012010BD002084F88400204600F0CA
:104BA00027F82420C4F888002068016821F001015A
:104BB0000160A06A10B1204600F0F0FD204601F02F
:104BC00041F90128E6D02068416821F49041416014
:104BD0002068816821F02A0181602068016841F025
:104BE000010101602046BDE8104000F03BBE00001E
:104BF0002DE9F041B6B00446142130A8FBF7A4FB20
:104C0000C0216846FBF7A0FB454D022746492068B6
:104C1000083D434E0024DFF80C8188421ED100205D
:104C20001E940221CDE900106846FEF79DFA08B1F6
:104C3000FCF755F8306840F480103060306800F4BC
:104C400080103590286840F00200286028680E2106
:104C500000F0020035904FF4405022E03349884282
:104C60002BD100201F940121CDE900106846FEF7EA
:104C70007BFA08B1FCF733F829480830016841F0A5
:104C800010010160006800F010003590286840F0C5
:104C9000020028602868042100F0020035904FF4DB
:104CA00040403090CDE93174CDE9334130A94046E0
:104CB000FDF7B8FC36B0BDE8F0811D498842F9D156
:104CC00000201E940221CDE900106846FEF74CFA40
:104CD00008B1FCF704F8306840F480203060306898
:104CE00000F480203590286840F002002860286891
:104CF000072100F0020035904FF440603090CDE97C
:104D00003174CDE9334130A94046FDF78BFC0022D8
:104D100027201146FDF76EFE2720FDF75DFEC9E74F
:104D2000E8440258000402580050004000100140BE
:104D30000048004030B4D0F88C30202B02D0022044
:104D400030BC7047A9B1A2B10B4D00240368C46602
:104D5000AB420BD05B681B0208D5046854E8003FE7
:104D600043F0806344E80035002DF6D130BC01F0FB
:104D70003FBA0120E4E70000000C005810B50068BD
:104D8000074988420AD10748007802F08BF9BDE84C
:104D90001040044901220448FFF7CCBF10BD0000B9
:104DA000004800402B000024E40300242DE9F843D0
:104DB0000446D0F88800984616460D46202802D0B2
:104DC0000220BDE8F883A5B19EB10021C4F890107F
:104DD0002120C4F888001834FDF746FD814654F8B8
:104DE000100CA687E6872027183CB0F5805F02D01C
:104DF00003E00120E5E7206910B12E46002510E010
:104E000000260EE08021204601F07AFAC0B9DEB11A
:104E100016F8010B21688862B4F85600401EA4F809
:104E20005600B4F856004B464FF00002CDF8008013
:104E30000028E7D14FF04001204601F061FA48B167
:104E4000C4F888700320BCE735F8020B2168C0F372
:104E50000800E0E7C4F888700020B2E77047FEE77A
:104E60008068C0F3C00070478068C0F3800070475E
:104E70008068C0F38000704770B58AB0002468462F
:104E80001C21079408940994FBF75EFA1E4801213F
:104E90001C4A0425CB04082680E84C00C0E90345E1
:104EA00004758B0244754FF4AC6281610477C0E9EC
:104EB0000B144463C0E9092380F83840C163FCF750
:104EC000C3F908B1FBF70BFF0F4807A90794FBF7DD
:104ED00017FF08B1FBF703FF0C48062140F2FF72F1
:104EE00003928DE8130008486946CDE904548DF813
:104EF0001940FBF799FF002801D0FBF7F0FE0AB03C
:104F000070BD000000200240B800002400002143D2
:104F100070B588B01C216846FBF716FA1A480121C3
:104F2000184A0425CB04082680E84C000024C0E978
:104F3000034504758B0244754FF4AC6281610477BC
:104F4000C0E90B144463C0E9092380F83840C16309
:104F5000FCF77AF908B1FBF7C2FE0C48062140F2D3
:104F6000FF7203928DE8130007486946CDE90454A7
:104F70008DF81940FBF758FF002801D0FBF7AFFE72
:104F800008B070BD002102401C0100240040C03A5E
:104F90000D4808B5016841F0010101600068002278
:104FA000114600F0010000900B20FDF723FD0B20BF
:104FB000FDF712FD00220C201146FDF71BFDBDE898
:104FC00008400C20FDF708BDD844025830B587B022
:104FD00014216846FBF7B8F91A48016841F08001CE
:104FE0000160016801F080010591016841F0010153
:104FF0000160016801F001010591016841F01001B3
:105000000160016801F010010591016841F00201A1
:10501000016000684FF478640B4D002200F002003C
:10502000214605902846FDF713FC01AB00940120B2
:105030000021022283E8070069462846FDF7F2FABC
:1050400007B030BDE04402580010025810B588B0D7
:1050500016480024182200944FF0804101944F23F9
:105060000294039404940594069480E81600C0E921
:1050700003348461FFF784FA08B1FBF730FE4FF484
:105080008050009009486946FFF7BEFA08B1FBF767
:1050900026FE20200490054804A90694FFF71EFA76
:1050A000002801D0FBF71BFE08B010BD70020024E1
:1050B0001848002110B5164C0C224FF4E13304605F
:1050C000C0E90131C160C0E904128161C1610162BE
:1050D00041628162FFF756FD08B1FBF700FE0D4803
:1050E0000021FFF757FB08B1FBF7F9FD0948002144
:1050F000FFF72AFB08B1FBF7F2FD0648FFF702FBBA
:10510000002803D0BDE81040FBF7E9BD10BD00004A
:1051100000500040BC0200241848002110B5164C75
:105120000C224FF4E1330460C0E90131C160C0E9F1
:1051300004128161C161016241628162FFF722FD57
:1051400008B1FBF7CCFD0D480021FFF723FB08B1A8
:10515000FBF7C5FD09480021FFF7F6FA08B1FBF798
:10516000BEFD0648FFF7CEFA002803D0BDE8104088
:10517000FBF7B5BD10BD0000001001405003002436
:105180001848002110B5164C0C224FF4E13304608E
:10519000C0E90131C160C0E904128161C1610162ED
:1051A00041628162FFF7EEFC08B1FBF798FD0D4804
:1051B0000021FFF7EFFA08B1FBF791FD0948002144
:1051C000FFF7C2FA08B1FBF78AFD0648FFF79AFA23
:1051D000002803D0BDE81040FBF781BD10BD0000E2
:1051E00000480040E4030024FEE7FEE7704770B586
:1051F000B0B0C0216846FBF7A7F804216846022238
:10520000002619254FF400230093CDE90351C02453
:10521000CDE90162CDE9074609962996CDE9051247
:10522000FDF7A2FF002801D072B6FEE730B070BDD6
:105230002DE9F047454D044689464FF0000A28689D
:10524000C04380070AD0414E283E306820F080607D
:105250003060FDF709FB0746B04608E00120BDE8D5
:10526000F08700BFFDF700FBC01B022867D8D8F805
:1052700000000001F6D4206829684FF4FE0721F4ED
:105280007C313E0241EA00302860207AA389B4F8DC
:1052900004C040022D4D2D495B1E227CACF1010C57
:1052A0001035091DA0F5007080B2521ECCF3080C19
:1052B00007EA034340EA0C00184306EA026210437F
:1052C00028600868626920F0C000104308600A681E
:1052D000A06922F0200202430A60281D0A6822F019
:1052E00010020A6002684FF6F873E4699A4342EAD2
:1052F000C40202600868B9F1000F40F010020A60B1
:1053000011D00868B9F1010F11D040F40010086005
:10531000D8F80000444640F08060C8F80000FDF76F
:10532000A3FA05460DE0086840F40020EFE740F4DA
:105330008010ECE7FDF798FA401B022801D9032002
:105340008DE720680001F5D5504688E728440258CB
:105350002DE9F047454D044689464FF0000A28687C
:10536000C04380070AD0414E283E306820F080506C
:105370003060FDF779FA0746B04608E00120BDE845
:10538000F08700BFFDF770FAC01B022867D8D8F875
:1053900000008000F6D4208829684FF4FE0721F031
:1053A0007C713E0241EA00502860207AA389B4F85B
:1053B00004C040022D4D2D495B1E227CACF1010C36
:1053C0001835091DA0F5007080B2521ECCF3080CF0
:1053D00007EA034340EA0C00184306EA026210435E
:1053E00028600868626920F44060104308600A6819
:1053F000A06922F4007202430A60281D0A6822F4A0
:1054000080720A6002684FF6F873E4699A4342EAD0
:10541000C40202600868B9F1000F40F480720A60AB
:1054200011D00868B9F1010F11D040F08070086008
:10543000D8F80000444640F08050C8F80000FDF75E
:1054400013FA05460DE0086840F48000EFE740F4E9
:105450000000ECE7FDF708FA401B022801D9032001
:105460008DE720688000F5D5504688E7284402582B
:105470007047FDF7FFB9000070B59CB04C2168463D
:10548000FAF762FF202113A8FAF75EFF0220FDF76A
:10549000E3FA22490A68224822F001020A600968F8
:1054A000016821F4404141F4804101600168002419
:1054B00001F440411B9101688904FCD50220099048
:1054C0000DF12C0C0A90402506260C218CE8610079
:1054D000C3031294CDE90E0101226846CDE91014F0
:1054E000CDE90023FEF726FD08B172B6FEE713AE44
:1054F0003F20032186E81300502216940221130155
:10550000CDE91752CDE9193513A8FEF703FB0028A2
:1055100001D072B6FEE71CB070BD00002C0400582C
:10552000184802583348F0B5334A016841F4700115
:105530000160106800F00F00072804D2106820F006
:105540000F00C01D10602D4900202C4C10340B683A
:105550002B4D43F001030B6020600B682B400B6068
:10556000136803F00F03072B04D9136823F00F030C
:10557000DB1D1360214C234A1834234B261D371D95
:1055800020601E4C214D28343060261D3860371DA8
:1055900023603B1D35601C1D3A60251D2E1D1860C3
:1055A000331D22602860326018600A68134B184C63
:1055B00022F4802260330A60186020686FF30F00C5
:1055C000B0F1005F03D213490120C1F808010B4874
:1055D000D4300168C9040BD4026843F2D2010E4BE7
:1055E00042F4805202601960016821F48051016028
:1055F000F0BD000088ED00E0002000520044025899
:105600007FEDF6EA80020101000202020000FF01C4
:105610000010005C00800051004000522DE9F0476E
:10562000294B4FF0804A294D02689842284E294F55
:10563000294C09D0504507D0A84205D0B04203D02C
:10564000B84201D0A04205D1D1F804C022F07002C6
:105650004CEA0202DFF884C0DFF884809842DFF869
:1056600084900FD050450DD0A8420BD0B04209D045
:10567000B84207D0A04205D0604503D0404501D0D4
:10568000484503D1CD6822F440722A438E684D69A3
:1056900022F08002C6620E682A439842866207D0D2
:1056A000A04205D0604503D0404501D0484501D116
:1056B000096901630368012143F004030360416148
:1056C0000260BDE8F08700000000014000040040D7
:1056D00000080040000C0040000401400040014070
:1056E000004401400048014042EA032283680A4323
:1056F00023F47F410A43826070470000034B8268B5
:105700001A400A4342F00701816070478FFFCFFFC4
:1057100010B5036A046A23F00A0324F0010404624A
:1057200084690B4324F0F00141EA021181610362B4
:1057300010BD10B5036A046A23F0A00324F010041E
:105740000462846943EA011124F4704343EA02329B
:105750008261016210BD000030B5416EB9B10168CF
:105760000D4B03F108048A688968C2F34262490F4D
:105770005D5C615C2D01B5FBF1F1A0F86A10995CEC
:10578000A25C0901B1FBF2F1A0F8681030BD012163
:10579000A0F86A10F8E70000F470000890F82810EC
:1057A000090706D50168836B4A6822F400421A4350
:1057B0004A6090F82810C90706D00168C36A4A6891
:1057C00022F400321A434A6090F82810890706D55F
:1057D0000168036B4A6822F480321A434A6090F8E9
:1057E0002810490706D50168436B4A6822F48022D5
:1057F0001A434A6090F82810C90606D50168C36BA1
:105800008A6822F480521A438A6090F82810890628
:1058100006D50168036C8A6822F400521A438A6034
:1058200090F82810490611D50168436C4A6822F4A3
:1058300080121A434A60416CB1F5801F06D101689D
:10584000836C4A6822F4C0021A434A6090F8281018
:10585000090606D50168C26C486820F40020104390
:10586000486070472DE9F84300250446C0F8905081
:10587000FCF7FAFF8046206820266FF07E4700681C
:10588000000713D50022434631042046009700F05C
:1058900037FD58B1216851E8000F20F0800041E841
:1058A0000002002AF6D1C4F8886021E02068006870
:1058B000400722D5002243464FF48001204600973E
:1058C00000F01EFDC8B1206850E8001F21F490715F
:1058D00040E80012002AF6D12068083050E8001F86
:1058E00021F0010140E80012002AF5D1C4F88C60D3
:1058F000032084F88450BDE8F883C4F88860C4F8B5
:105900008C60E5662567002084F88450F3E710B5C5
:10591000806B0021A0F85E10FEF764FF10BD000050
:1059200010B5026852E8001F21F4907142E800139C
:10593000002BF6D10E4B0268083252E8001F1940C6
:1059400042E80014002CF6D1C16E012908D102688A
:1059500052E8001F21F0100142E80013002BF6D19D
:1059600000212022C0F88C20C166416710BD0000D4
:10597000FEFFFFEF10B5D0F88C10B0F860202229A0
:10598000016804D0886940F00800886110BD496A48
:10599000836D11401980816D891C8165B0F85E109E
:1059A000491EA0F85E10B0F85E100029EED1016823
:1059B00051E8002F22F4907241E80023002BF6D129
:1059C0000168083151E8002F22F0010241E800236C
:1059D000002BF5D1184B002102682024C0F88C4020
:1059E000416701679A420BD05268120208D50368DA
:1059F00053E8002F22F0806243E80024002CF6D107
:105A0000C26E012A02D0FFF7B9F910BDC166026863
:105A100052E8001F21F0100142E80013002BF6D1DC
:105A20000168CA69D243D20601D410220A62B0F8D2
:105A30005C10FEF787FE10BD000C00582DE9F04702
:105A400004460068C569D0F800A0D0F80890D4F8E2
:105A50008C10B4F86060222905D0816941F00801FA
:105A60008161BDE8F087B4F868704FF0000844E049
:105A70002068A16D406A30400880A06D801CA06540
:105A8000B4F85E00401EA4F85E002068C56969078E
:105A900030D0E9070AD05FEACA5107D50121016277
:105AA000D4F8900040F00100C4F89000A8070BD58E
:105AB0005FEAC97008D0216802200862D4F890001B
:105AC00040F00400C4F8900068070BD55FEAC97085
:105AD00008D0216804200862D4F8900040F0020049
